:020000040800F2
:1000000078070020D5010008492800088120000851
:10001000EB270008E90F0008FB4100080000000082
:100020000000000000000000000000001532000881
:10003000ED0F000800000000D12800082933000857
:10004000EF010008EF010008EF010008EF010008D0
:10005000EF010008EF010008F10F00089D100008F3
:10006000D11000080511000839110008EF0100083F
:10007000EF010008EF010008EF010008EF010008A0
:10008000EF010008EF010008EF010008EF01000890
:10009000EF010008EF010008EF0100086D110008F2
:1000A000EF010008EF010008EF010008EF01000870
:1000B000CD350008EF010008D1380008EF01000835
:1000C000EF010008EF010008EF010008EF01000850
:1000D000EF010008EF010008553F0008EF0100089C
:1000E00025100008EF010008EF010008EF010008EB
:1000F000EF010008EF010008EF010008EF01000820
:10010000EF010008EF010008EF010008EF0100080F
:10011000EF010008EF010008EF010008EF010008FF
:10012000EF010008EF010008EF010008EF010008EF
:1001300000F002F800F03FF80AA090E8000C8244BA
:100140008344AAF10107DA4501D100F034F8AFF297
:10015000090EBAE80F0013F0010F18BFFB1A43F0A5
:10016000010318476495000084950000103A24BFED
:1001700078C878C1FAD8520724BF30C830C144BF0C
:1001800004680C607047000000230024002500264E
:10019000103A28BF78C1FBD8520728BF30C148BFEA
:1001A0000B607047642900F06780002070471FB51E
:1001B0001FBD10B510BD00F0CBFA1146FFF7F7FFD9
:1001C00005F0DEFE00F0E9FA03B4FFF7F2FF03BC2E
:1001D00004F099F80948804709480047FEE7FEE720
:1001E000FEE7FEE7FEE7FEE7FEE7FEE7FEE7FEE7E7
:1001F00004480549054A064B704700002D330008A6
:1002000031010008780100207807002078030020E1
:1002100078030020704710B54C1084EA530404D5CD
:100220004042C1F1000138BF491E1B4204D5524271
:10023000C3F1000338BF5B1E00F02EF914F0804FAD
:1002400004D04042C1F1000138BF491E14F0004FF4
:1002500004D05242C3F1000338BF5B1E10BD000042
:100260000FB4044910B503AA029800F0F1F910BCCC
:100270005DF814FBEC0000202DE9F0410646002457
:1002800010687529314616A510D0AFF300800028FC
:1002900002DA404213A507E031688A0701D512A5AA
:1002A00002E0490704D511A5012401E0AFF3008065
:1002B00000210A2206F1240709E0B0FBF2FCB0FBA2
:1002C000F2F302FB1C00303078541846491C002819
:1002D000F3D123462A463046BDE8F04100F05EB92E
:1002E000000000002D0000002B0000002000000096
:1002F0002DE9F05F894604464FF0000ADFF824B18B
:10030000FB44C0F820A02046E168884700287DD043
:10031000252806D0D4E901219047206A401C20629C
:10032000F1E700255F462046E16888472028064619
:1003300007DB312E05D2B81910F8200C08B105439F
:10034000F1E7A80701D525F00405C4F81CA0002793
:10035000C4F818A02A2E09D0304603F0CDFF38B3D8
:1003600004EB8708303EC8F8186019E059F8041B00
:10037000204604EB87029161E1688847012F064619
:1003800018D1E069002820DA25F020051DE0D8F812
:10039000180000EB800006EB40003038C8F8180069
:1003A0002046E1688847064603F0A6FF0028EED104
:1003B000012F0AD02E2E08D12046E16888477F1CE5
:1003C0000646022F45F02005C4DBA069002803DAA9
:1003D000404245F00105A061E80701D025F0100575
:1003E000A6B1A6F14100192802D8203645F40065CF
:1003F0004A463146204625604D46FFF7D3FE60B1A0
:10040000012807D0ED1D25F0070000E007E000F10E
:10041000080978E705F1040975E730467AE7206AAC
:10042000BDE8F09F6E92000040EA010310B59B0703
:100430000FD1042A0DD310C808C9121F9C42F8D04E
:1004400020BA19BA884201D9012010BD4FF0FF30FF
:1004500010BD1AB1D30703D0521C07E0002010BD15
:1004600010F8013B11F8014B1B1B07D110F8013BA1
:1004700011F8014B1B1B01D1921EF1D1184610BD82
:1004800002F0FF0343EA032242EA024200F0F4B81A
:10049000704770477047704753EA020C00F069805C
:1004A0002DE9F04B4FF00006002B1FBFB3FA83F588
:1004B00003FA05F424FA05F65E4012BF1643B2FAB9
:1004C00082F502FA05F4C5F120051EBF22FA05FCEB
:1004D00044EA0C04203556EA044C4FEA144418BF91
:1004E000641C4FF000084FF00009904271EB030CC0
:1004F00039D3002919BFB1FA81F701FA07F6B0FA2A
:1005000080F700FA07F6C7F120071EBF20FA07FCA4
:1005100046EA0C062037B6FBF4FCA7EB0507103FB4
:1005200007F01F0BCBF120060CFA0BFB2CFA06F69A
:1005300044BFB3460026202FA4BF5E464FF0000BF9
:100540005BEA060C08BF4FF0010B19EB0B09ABFB84
:10055000027C48EB0608C01B06FB02CC0BFB03CC5D
:1005600071EB0C01C1E70B46024641464846BDE827
:10057000F08B13B54FF000004FF00001AFF3008097
:10058000BDE81C40704710B500F096F8006810BD3B
:1005900010B5044600F090F8046010BD2DE9F04756
:1005A0000D4699469246044600F1240801688806E3
:1005B00004D5E06921F01001216000E00120A8428B
:1005C00001DD471B00E00027A1697A1902EB090051
:1005D000081AA0612078C00602D42046AFF300803C
:1005E000002608E0D4E901211AF806009047206AA5
:1005F000401C761C20624E45F4DB2078C0060AD5EC
:100600002046AFF3008006E0D4E901213020904776
:10061000206A401C2062381EA7F10107F4DC07E0C5
:10062000D4E9012118F805009047206A401C206297
:10063000281EA5F10105F3DC2046AFF300802078E9
:10064000000602D50220BDE8F0870120FBE700008C
:10065000074B70B50D467B4400F037F8044628463A
:1006600000F046F810B14FF0FF3070BD204670BD6D
:100670005F5000004FF000020429C0F0128010F01B
:10068000030C00F03B80CCF1040CBCF1020F18BF4E
:1006900000F8012BA8BF20F8022BA1EB0C0100F001
:1006A0002DB85FEAC17C24BF00F8012B00F8012BB4
:1006B00048BF00F8012B7047004870471401002024
:1006C00001694A1C02610878704700B58FB0CDE916
:1006D00001310021059105497944CDE90310114606
:1006E0006846FFF705FE0FB000BD0000E5FFFFFF05
:1006F000007B00F0800070474FF0000200B5134609
:1007000094469646203922BFA0E80C50A0E80C5031
:10071000B1F12001BFF4F7AF090728BFA0E80C50E2
:1007200048BF0CC05DF804EB890028BF40F8042BDB
:1007300008BF704748BF20F8022B11F0804F18BF48
:1007400000F8012B7047000000487047140100209A
:100750007546FFF7F9FFAE4605006946534620F09F
:100760000700854618B020B5FFF742FDBDE82040E0
:100770004FF000064FF000074FF000084FF0000B5D
:1007800021F00701AC46ACE8C009ACE8C009ACE810
:10079000C009ACE8C0098D4670470446AFF300803D
:1007A0002046FFF711FD000010B50446002C15DDB2
:1007B00040F6B830844200DD04464FF400411B4847
:1007C00000F071FF4FF48041184800F06AFF04F513
:1007D000167081B2164803F039FB25E0002C14DABC
:1007E0001448844200DA04464FF400410F4800F0F8
:1007F00058FF4FF480410D4800F055FFC4F51670C6
:1008000081B20B4803F022FB0EE06CB94FF40041BB
:10081000064800F046FF4FF48041044800F041FFD5
:100820000021034803F012FB10BD0000001C014032
:100830000004004048F4FFFF10B50446002C15DD0D
:1008400040F6B830844200DD04464FF400511B48A6
:1008500000F029FF4FF48051184800F022FF04F502
:10086000167081B2164803F0EDFA25E0002C14DA78
:100870001448844200DA04464FF400510F4800F057
:1008800010FF4FF480510D4800F00DFFC4F51670B5
:1008900081B20B4803F0D6FA0EE06CB94FF4005168
:1008A000064800F0FEFE4FF48051044800F0F9FEC7
:1008B0000021034803F0C6FA10BD0000001C0140EF
:1008C0000004004048F4FFFF10B50446002C13DD7F
:1008D00040F6B830844200DD04460421184800F098
:1008E000E2FE0821164800F0DCFE04F5167081B225
:1008F000144803F0A9FA21E0002C12DA12488442CD
:1009000000DA044604210E4800F0CBFE08210C4812
:1009100000F0C9FEC4F5167081B20A4803F094FADB
:100920000CE05CB90421064800F0BBFE0821044835
:1009300000F0B7FE0021034803F086FA10BD000066
:10094000002001400004004048F4FFFF10B50446B9
:10095000002C14DD40F6B830844200DD04464FF42C
:100960008071194800F09FFE4021174800F099FE61
:1009700004F5167081B2154803F062FA23E0002CEA
:1009800013DA1348844200DA04464FF480710E48AB
:1009900000F087FE40210C4800F085FEC4F516707B
:1009A00081B20A4803F04CFA0DE064B94FF480714B
:1009B000054800F076FE4021034800F072FE002159
:1009C000024803F03DFA10BD002001400004004041
:1009D00048F4FFFF94B04FF4166006F07BFDFE482C
:1009E000006840F00100FC4908600846006840F0DB
:1009F000020008600846006840F0040008600846ED
:100A0000006840F0080008600846006840F01000E8
:100A100008600846006840F020000860084600684A
:100A200040F4006008600846006840F40050086028
:100A300041F61F41C72002F089FE0020E749086007
:100A4000E749C1F89401AAE2E64AE749E74805F018
:100A50002DFB002842D1E5480168E54807F006FD76
:100A6000044607F067FCE3490860DF480168E04896
:100A700007F0FCFC044607F05DFCDF490860D9483C
:100A80000168DB4807F0F2FC044607F053FCDB4941
:100A90000860DB48006842F6E06188420CDDD74818
:100AA0000068494288421ADAD448006848F6A041F2
:100AB0000844D249086012E0D1480068D149884210
:100AC0000DDACE4800684942884208DDCB4800680C
:100AD000A0F50C40A038C949086000E05FE2CA4AAE
:100AE000CA49CB4801F0BAFBC9480088C9490988FE
:100AF000401A00B2C6490880C4480088C64909881F
:100B0000401A00B2C1490880BF480088C34909881B
:100B1000401A00B2BC490880C1480068B54909685C
:100B2000401AC0490860C0480068B3490968401AC3
:100B3000BE490860B2480068B0490968401ABC491B
:100B40000860BC48006806F074FFCDE91001BA489F
:100B5000006806F06EFFCDE90C01B848006806F0A9
:100B600068FF0446B64AB74B06F07AFFCDE90801A4
:100B7000B548006806F05DFF0446B44AB44B06F081
:100B80006FFFCDE90401AA48006806F052FF044651
:100B90000D46B048006806F04CFF8046AB4AAE4BAD
:100BA00006F05EFF064622462B4606F059FFCDE9C9
:100BB00000019748B0F9000006F03BFF80464FF077
:100BC0006632A64B06F04CFF04460D46974909686D
:100BD000A1EB011006F02DFF064622462B4606F03B
:100BE000F1FC8246DDE9002307F02AF9CDE9020194
:100BF000DDE9042306F0E6FCCDE90601DDE9082382
:100C000006F0E0FCCDE90A01DDE90C2307F018F954
:100C1000CDE90E01DDE9102306F0D4FCCDE9120187
:100C200006F0D8FE8E4908608248006806F001FF91
:100C3000CDE910018048006806F0FBFECDE90C010B
:100C40007E48006806F0F5FE04467D4A7D4B06F0BE
:100C500007FFCDE908017C48006806F0EAFE04467B
:100C60007A4A7B4B06F0FCFE82468B467048006851
:100C700006F0DFFE04460D467648006806F0D9FE11
:100C80000646724A744B06F0EBFE804622462B461F
:100C900006F0E6FECDE902015D48B0F9000006F07D
:100CA000C8FE80464FF066326C4B06F0D9FE044613
:100CB0000D465E490968A1EB011006F0BAFE064632
:100CC00022462B4606F07EFCCDE90001DDE9022339
:100CD00006F078FC52465B46CDE9040106F072FC52
:100CE000CDE90601DDE9082306F06CFCCDE90A0137
:100CF000DDE90C2306F066FCCDE90E01DDE91023E9
:100D000006F060FCCDE9120106F064FE554908606A
:100D10005548006806F08DFECDE910014648006890
:100D200006F087FECDE90C015048006806F081FE10
:100D30000446434A434B06F093FECDE908014C4874
:100D4000006806F076FE0446404A414B06F088FEF5
:100D5000CDE904013648006806F06BFE04460D46F6
:100D60003C48006806F065FE8046384A3A4B06F07B
:100D700077FE064622462B4606F072FECDE90201BA
:100D80002248B0F9000006F054FE80464FF066326B
:100D9000324B06F065FE04460D4622490968C1EB58
:100DA000011006F046FE064622462B4607F048F89C
:100DB000CDE90001DDE9022307F042F88246DDE9D2
:100DC000042306F0FFFBCDE90601DDE9082306F068
:100DD000F9FBCDE90A014DE0000401409481214274
:100DE0000000234208000020040000200000002032
:100DF0000000C842300000203400002038000020ED
:100E00004400002020D1FFFF100000200E00002031
:100E10000C0000201200002014000020160000200A
:100E20003C00002048000020400000204C00002032
:100E30005000002070000020780000206C0000208E
:100E4000FCA9F1D24D62803F640000209A999999E3
:100E50009999E93F540000209999B93F6666064088
:100E60007C0000208000002074000020680000202A
:100E700060000020DDE90C2306F0E2FFCDE90E0161
:100E8000DDE9102306F09EFBCDE9120106F0A2FD7C
:100E9000434908604348006806F0CBFDCDE91001E6
:100EA0004148006806F0C5FDCDE90C013F480068E7
:100EB00006F0BFFD04463E4A3E4B06F0D1FDCDE9AB
:100EC00008013D48006806F0B4FD04463B4A3C4B2F
:100ED00006F0C6FDCDE904013A48006806F0A9FD18
:100EE00004460D463848006806F0A3FD8046334AA4
:100EF000364B06F0B5FD064622462B4606F0B0FD01
:100F000082468B463248B0F9000006F092FD064654
:100F10004FF066322F4B06F0A3FD04460D462E49D6
:100F20000968C1EB011006F084FD804622462B467D
:100F300006F086FF52465B46CDE9000106F042FB13
:100F4000CDE90201DDE9042306F03CFBCDE9060111
:100F5000DDE9082306F036FBCDE90A01DDE90C23C3
:100F600006F030FBCDE90E01DDE9102306F02AFB87
:100F7000CDE9120106F02EFD1849086018480068F6
:100F8000FFF712FC17480068FFF756FC044800689A
:100F9000FFF79AFC11480068FFF7D8FC00BF53E543
:100FA00084000020740000207800002068000020E9
:100FB000FCA9F1D24D62803F600000209A99999976
:100FC0009999E93F50000020540000209999B93FB9
:100FD0000E000020666606404800002088000020C1
:100FE0007C0000208000002000BFFEE7704700006A
:100FF00010B50221094800F04BFB012805D1084833
:101000000068401C0649086004E005480068401E6E
:1010100003490860012000F0E3F910BD0018014009
:101020001C00002010B54FF4006000F0DFF9A8B1FB
:101030004FF40051174800F02BFB28B91648006800
:10104000401C1549086004E013480068401E12491E
:1010500008604FF4006000F0C3F91AE04FF400504C
:1010600000F0C4F9A8B14FF400610A4800F010FB89
:10107000012805D108480068401C0749086004E0C1
:1010800005480068401E044908604FF4005000F015
:10109000A7F910BD001401402000002010B5012167
:1010A000094800F0F5FA28B908480068401C0749CB
:1010B000086004E005480068401E044908600220FA
:1010C00000F08EF910BD0000001801401C00002047
:1010D00010B50821094800F0DBFA28B90848006873
:1010E000401C0749086004E005480068401E0449A8
:1010F0000860042000F074F910BD0000001C0140DD
:101100001800002010B50421094800F0C1FA012898
:1011100005D108480068401C0649086004E00548FD
:101120000068401E03490860082000F059F910BD0E
:10113000001C01401800002010B52021094800F0D3
:10114000A7FA012805D108480068401C0649086034
:1011500004E005480068401E03490860102000F0C4
:101160003FF910BD002001402400002010B51021DF
:10117000094800F08DFA28B908480068401C074962
:10118000086004E005480068401E0449086020200B
:1011900000F026F910BD00000020014024000020CE
:1011A0001FB501214FF4F07001F0A4FB4FF4205063
:1011B000ADF8000004208DF803006946834800F074
:1011C00093F90320ADF8000004208DF80300694670
:1011D0007F4800F089F90C20ADF8000004208DF85C
:1011E000030069467B4800F07FF93020ADF800002D
:1011F00004208DF803006946774800F075F9012155
:10120000084601F077FB0021042000F04DF9012091
:10121000029000208DF80C0008208DF80D0002A827
:1012200000F0F8F80121042000F03EF902200290BD
:1012300002A800F0EFF80221052000F035F90420A3
:10124000029002A800F0E6F80321052000F02CF936
:101250000820029002A800F0DDF80421062000F02A
:1012600023F91020029002A800F0D4F805210620EE
:1012700000F01AF92020029002A800F0CBF80B2110
:10128000032000F011F94FF40060029002A800F072
:10129000C1F80D21032000F007F94FF4005002902F
:1012A00002A800F0B7F806208DF8040003208DF89E
:1012B000050000208DF8060001208DF8070001A828
:1012C00001F0C4FA07208DF8040003208DF8050012
:1012D00000208DF8060001208DF8070001A801F01C
:1012E000B5FA08208DF8040003208DF805000020D1
:1012F0008DF8060001208DF8070001A801F0A6FA7C
:1013000009208DF8040003208DF8050000208DF8D9
:10131000060001208DF8070001A801F097FA0A20C5
:101320008DF8040003208DF8050000208DF80600DC
:1013300001208DF8070001A801F088FA17208DF828
:10134000040003208DF8050000208DF80600012020
:101350008DF8070001A801F079FA28208DF8040023
:1013600003208DF8050000208DF8060001208DF87F
:10137000070001A801F06AFA1848006820F001008F
:10138000164908600846006820F002000860084618
:10139000006820F0040008600846006820F008009B
:1013A00008600846006820F01000086008460068E1
:1013B00020F0200008600846006820F40060086003
:1013C0000846006820F4005008601FBD001401406A
:1013D00000180140001C01400020014000040140B1
:1013E00001490860704700001404014001460020D4
:1013F0000022074B1B6803EA0102054B14331B68EC
:101400000B4013B10AB1012000E00020704700003A
:1014100000040140002123498279002A3AD00A467B
:10142000126803689A430B461A600A1D1268036823
:101430009A430B1D1A60027911440A6803681A4323
:101440000A60184A0832126803689A43154B083339
:101450001A601A1D126803689A43124B0C331A6003
:101460004279102A0ED11A1F126803681A430D4BD5
:1014700008331A601A1D126803681A43094B0C33AB
:101480001A600DE00749427911440A6803681A435B
:101490000A6005E0027911440A6803689A430A6009
:1014A000704700000004014030B500228B071C0F7C
:1014B0000F2303FA04F20B4B8C1053F824309343A0
:1014C000084C8D1044F8253023468C1053F82430F6
:1014D0008C07240F00FA04F42343024C8D1044F8C7
:1014E000253030BD080001402DE9F04102460025BD
:1014F0000026002000230024002791F803C00CF0F0
:101500000F0591F803C00CF0100CBCF1000F03D0D4
:1015100091F802C04CEA050591F800C0BCF1000F3B
:1015200031D0146800202BE04FF0010C0CFA00F3CE
:10153000B1F800C00CEA03069E4220D183004FF0B0
:101540000F0C0CFA03F7BC4305FA03FC4CEA040445
:1015500091F803C0BCF1280F06D14FF0010C0CFA32
:1015600000FCC2F814C00AE091F803C0BCF1480FB7
:1015700005D14FF0010C0CFA00FCC2F810C0401C61
:101580000828D1D31460B1F800C0BCF1FF0F34DDDE
:10159000546800202EE000F1080C4FF0010808FA12
:1015A0000CF3B1F800C00CEA03069E4221D183007F
:1015B0004FF00F0C0CFA03F7BC4305FA03FC4CEA9E
:1015C000040491F803C0BCF1280F05D100F1080C08
:1015D00008FA0CF8C2F8148091F803C0BCF1480F67
:1015E00007D100F1080C4FF0010808FA0CF8C2F816
:1015F0001080401C0828CED35460BDE8F081000064
:10160000F0B50A46002300240021002500F0004622
:10161000B6F1004F02D11D4EF16901E01B4E716819
:10162000C0F3034583B200F44016B6F5401F08D15D
:1016300021F07061154E766826F07066134F7E605B
:1016400012E000F48016B6F5801F06D1032606FAD4
:1016500005F4A14341F0706106E0460D360103FA3E
:1016600006F6B14341F0706122B1460D360103FA2E
:1016700006F6314300F00046B6F1004F02D1034EAA
:10168000F16101E0014E7160F0BD00000000014019
:101690000246002093680B400BB1012000E00020BF
:1016A00070474161704701617047000010B500202C
:1016B0000F4908600F48006820F470000D49086069
:1016C0000846006840F44010086000200A49C1F84C
:1016D0009401032003F0F0F901200549086003207C
:1016E00003F0EAF900200449C1F89C0110BD000094
:1016F0009C812342001C01400080234210B5002041
:101700000F4908600F48006820F470000D49086018
:101710000846006840F44010086001200A49C1F8FA
:101720009401022003F0C8F9012005490860022055
:1017300003F0C2F900200449C1F89C0110BD00006B
:101740009C812342001C01400080234270B5054665
:1017500000241748006820F4700015490860084606
:10176000006840F400000860002616E000201149DF
:101770000860042003F0A0F901200F49C1F89C0182
:101780006006040E0B488838006808B1601CC4B2BB
:10179000042003F091F9701CC6B2082EE6DB15B9DF
:1017A000FFF7ACFF01E0FFF781FF204670BD0000AE
:1017B000001C01409C8123420080234270B50446F6
:1017C0001848006820F47000164908600846006850
:1017D00040F44010086000201349086000251EE016
:1017E000E00920B1012010490839086003E0002019
:1017F0000D49083908606006040E052003F05CF905
:10180000012009490860052003F056F90020074926
:10181000C1F89C01052003F04FF9681CC5B2082DE2
:10182000DEDB70BD001C01409C812342008023420E
:1018300010B50F48006820F470000D490860084694
:10184000006840F44010086001200A4908600A4915
:10185000C1F89C01042003F02FF90020054908601D
:10186000042003F029F900200349C1F89C0110BDB0
:10187000001C0140948123420080234210B50F4890
:10188000006820F470000D4908600846006840F4C4
:101890004010086000200A4908600A49C1F8940114
:1018A000042003F009F90120054908600549C1F841
:1018B0009401042003F000F910BD0000001C014059
:1018C0009C8123420080234210B500241548006803
:1018D00020F47000134908600846006840F40000D6
:1018E0000860012010490860032003F0E5F801209A
:1018F0000E49C1F89C01032003F0DEF807E0601CEC
:10190000C4B2FA2C03DDFFF7B9FF012010BD064871
:10191000803800680028F2D103490831086000BF10
:10192000F4E70000001C0140948123420080234220
:1019300070B50446FFF77CFFE620FFF73FFFFFF797
:10194000C3FF18B1FFF79AFF002070BD2046FFF7D4
:1019500035FFFFF7B9FFFFF76BFFE720FFF72EFF1B
:10196000FFF7B2FF0020FFF7F1FE0546FFF786FF05
:101970002846EAE770B506460C461546FFF758FFBD
:10198000E620FFF71BFFFFF79FFF18B1FFF776FF79
:10199000012070BD3046FFF711FFFFF795FFFFF7FD
:1019A00047FFE720FFF70AFFFFF78EFF0DE0012C4E
:1019B00004D10020FFF7CAFE287003E00120FFF7E2
:1019C000C5FE28706D1C601E84B2002CEFD1FFF79D
:1019D00055FF0020DDE710B5FFF72AFFE620FFF7EF
:1019E000EDFEFFF74BFF10BD70B505460C46FFF747
:1019F0001FFFE620FFF7E2FEFFF766FF18B1FFF7D3
:101A00003DFF012070BD2846FFF7D8FEFFF75CFFC1
:101A10002046FFF7D3FEFFF757FFFFF72FFF002009
:101A2000F0E7000008B50121802000F063FFA0204E
:101A3000ADF8000010208DF8030003208DF802009F
:101A400069460448FFF750FDA0210248FFF72BFE2E
:101A500008BD0000001C014094B003E04FF4FA7090
:101A600003F004F805F016FC0028F7D005F034FC6C
:101A7000FE48006840F00100FC4908600846006824
:101A800040F0020008600846006840F0040008606A
:101A90000846006840F0080008600846006840F00A
:101AA000100008600846006840F020000860084602
:101AB000006840F4006008600846006840F4005088
:101AC000086041F61F41C72001F040FE0120E849AF
:101AD00008600020E749C1F89401ACE2E64AE74912
:101AE000E74804F0E3FA002842D1E5480168E548F8
:101AF00006F0BCFC044606F01DFCE3490860DF4824
:101B00000168E04806F0B2FC044606F013FCDF4929
:101B10000860D9480168DB4806F0A8FC044606F0D6
:101B200009FCDB490860DB48006842F6E061884256
:101B30000CDDD7480068494288421ADAD448006868
:101B400048F6A0410844D249086012E0D148006834
:101B5000D14988420DDACE4800684942884208DD02
:101B6000CB480068A0F50C40A038C949086000E0E7
:101B700061E2CA4ACA49CB4800F070FBC9480088F4
:101B8000C9490988401A00B2C6490880C44800887B
:101B9000C6490988401A00B2C1490880BF48008878
:101BA000C3490988401A00B2BC490880C14800688E
:101BB000B5490968401AC0490860C0480068B3497F
:101BC0000968401ABE490860B2480068B04909680F
:101BD000401ABC490860BC48006805F02AFFCDE9FE
:101BE0001001BA48006805F024FFCDE90C01B8489F
:101BF000006805F01EFF0446B64AB74B05F030FFFB
:101C0000CDE90801B548006805F013FF0446B44A61
:101C1000B44B05F025FFCDE90401AA48006805F0A2
:101C200008FF04460D46B048006805F002FF8046F4
:101C3000AB4AAE4B05F014FF064622462B4605F094
:101C40000FFFCDE900019748B0F9000005F0F1FE63
:101C500080464FF06632A64B05F002FF04460D4663
:101C600097490968A1EB011005F0E3FE06462246FC
:101C70002B4605F0A7FC8246DDE9002306F0E0F8DC
:101C8000CDE90201DDE9042305F09CFCCDE9060164
:101C9000DDE9082305F096FCCDE90A01DDE90C2316
:101CA00006F0CEF8CDE90E01DDE9102305F08AFC3F
:101CB000CDE9120105F08EFE8E4908608248006869
:101CC00005F0B7FECDE910018048006805F0B1FECF
:101CD000CDE90C017E48006805F0ABFE04467D4A64
:101CE0007D4B05F0BDFECDE908017C48006805F09C
:101CF000A0FE04467A4A7B4B05F0B2FE82468B4634
:101D00007048006805F095FE04460D467648006868
:101D100005F08FFE0646724A744B05F0A1FE804620
:101D200022462B4605F09CFECDE902015D48B0F944
:101D3000000005F07EFE80464FF066326C4B05F0E9
:101D40008FFE04460D465E490968A1EB011005F0BF
:101D500070FE064622462B4605F034FCCDE9000114
:101D6000DDE9022305F02EFC52465B46CDE9040175
:101D700005F028FCCDE90601DDE9082305F022FC89
:101D8000CDE90A01DDE90C2305F01CFCCDE90E01CB
:101D9000DDE9102305F016FCCDE9120105F01AFE6D
:101DA000554908605548006805F043FECDE910012B
:101DB0004648006805F03DFECDE90C01504800683A
:101DC00005F037FE0446434A434B05F049FECDE992
:101DD00008014C48006805F02CFE0446404A414B7F
:101DE00005F03EFECDE904013648006805F021FE0D
:101DF00004460D463C48006805F01BFE8046384A04
:101E00003A4B05F02DFE064622462B4605F028FEED
:101E1000CDE902012248B0F9000005F00AFE804633
:101E20004FF06632324B05F01BFE04460D46224948
:101E30000968C1EB011005F0FCFD064622462B4661
:101E400005F0FEFFCDE90001DDE9022305F0F8FF12
:101E50008246DDE9042305F0B5FBCDE90601DDE9A5
:101E6000082305F0AFFBCDE90A014DE00004014075
:101E70009481214200002342080000200400002039
:101E8000000000200000C842300000203400002084
:101E9000380000204400002020D1FFFF1000002067
:101EA0000E0000200C000020120000201400002072
:101EB000160000203C0000204800002040000020C8
:101EC0004C0000205000002070000020780000200E
:101ED0006C000020FCA9F1D24D62803F640000201C
:101EE0009A9999999999E93F540000209999B93F95
:101EF000666606407C000020800000207400002000
:101F00006800002060000020DDE90C2305F098FF48
:101F1000CDE90E01DDE9102305F054FBCDE91201F6
:101F200005F058FD444908604448006805F081FD0B
:101F3000CDE910014248006805F07BFDCDE90C01B8
:101F40004048006805F075FD04463F4A3F4B05F0E8
:101F500087FDCDE908013E48006805F06AFD0446AA
:101F60003C4A3D4B05F07CFDCDE904013B4800684F
:101F700005F05FFD04460D463948006805F059FD3F
:101F80008046344A374B05F06BFD064622462B4609
:101F900005F066FD82468B463348B0F9000005F037
:101FA00048FD06464FF06632304B05F059FD0446B9
:101FB0000D462F490968C1EB011005F03AFD804636
:101FC00022462B4605F03CFF52465B46CDE9000118
:101FD00005F0F8FACDE90201DDE9042305F0F2FA93
:101FE000CDE90601DDE9082305F0ECFACDE90A01A7
:101FF000DDE90C2305F0E6FACDE90E01DDE9102359
:1020000005F0E0FACDE9120105F0E4FC1949086099
:1020100019480068FEF7C8FB18480068FEF70CFC7A
:1020200005480068FEF750FC12480068FEF78EFC79
:1020300003F050FB00BF51E5840000207400002035
:102040007800002068000020FCA9F1D24D62803F9A
:10205000600000209A9999999999E93F50000020D1
:10206000540000209999B93F0E0000206666064092
:1020700048000020880000207C0000208000002014
:1020800000BFFEE708B50121442000F033FC182012
:10209000ADF8000048208DF8030069460648FFF7B8
:1020A00023FA0120ADF8000028208DF803006946CE
:1020B0000248FFF719FA08BD001801400008014066
:1020C00010B5044614B10120234908702248007855
:1020D00058B310212148FFF7DBFA50B108211F48FF
:1020E000FFF7D6FA28B101211D48FFF7D1FA0128E0
:1020F0001BD10A2002F0BAFC0020174908701021F9
:102100001648FFF7C5FA08B9012010BD0821134889
:10211000FFF7BEFA08B90220F7E701211048FFF7E0
:10212000B7FA012815D10320EFE710210B48FFF77C
:10213000AFFA01280DD108210848FFF7A9FA0128B4
:1021400007D101210648FFF7A3FA10B9012002497F
:1021500008700020D9E70000A0000020001801400E
:102160000008014008B50121482000F0C3FB2020F1
:10217000ADF8000010208DF8030003208DF8020058
:1021800069460948FFF7B0F920210748FFF78BFAA5
:102190002020ADF8000069460448FFF7A5F920218A
:1021A0000248FFF780FA08BD000C0140001801400A
:1021B00010B50024002023490880234908802349C2
:1021C00008803EE0224A2349234800F047F81D4892
:1021D000008821490988084400B21A4908801A4831
:1021E00000881C490988084400B21749088017482C
:1021F000008817490988084400B214490880641C03
:102200001E2C1BD10F48B0F900001E2190FBF1F0ED
:1022100000B20C4908800C48B0F900001E2190FB68
:10222000F1F000B2084908800848B0F900001E210A
:1022300090FBF1F000B20549088010BD0A2002F0C1
:1022400015FCBFE71200002014000020160000203B
:10225000100000200E0000200C0000202DE9FC41A1
:1022600004460D4616466B4606224321682000F0C0
:10227000E6F90746BFB99DF801009DF8001040EA55
:10228000012000B220809DF803009DF8021040EA72
:10229000012000B228809DF805009DF8041040EA56
:1022A000012000B230803846BDE8FC8110B5002026
:1022B0000E4908600E48006820F470400C49086020
:1022C0000846006840F44050086000200949C1F801
:1022D000AC0100F011F801200449086000F00CF88E
:1022E00000200449C1F8A80110BD0000A8812142C6
:1022F000040C01400080214210B5022002F0DCFBFA
:1023000010BD000008B50121082000F0F3FA4FF4D9
:102310004060ADF8000010208DF8030003208DF818
:10232000020069460448FFF7DFF84FF440610248B5
:10233000FFF7B9F908BD0000000C014010B50020FE
:102340000E4908600E48006820F470400C4908608F
:102350000846006840F44050086001200949C1F86F
:10236000AC01FFF7C9FF012004490860FFF7C4FF73
:1023700000200449C1F8A80110BD0000A881214235
:10238000040C01400080214270B505460024164827
:10239000006820F47040144908600846006840F462
:1023A00000400860002614E0002010490860FFF794
:1023B000A3FF01200E49C1F8A8016006040E0B48D6
:1023C0007C38006808B1601CC4B2FFF795FF701C30
:1023D000C6B2082EE8DB15B9FFF7B0FF01E0FFF742
:1023E00065FF204670BD0000040C0140A881214219
:1023F0000080214270B504461248006820F4704005
:10240000104908600846006840F440500860002009
:102410000D490860002512E0E0090B49091D08601C
:102420006006040E01200949C1F8A801FFF764FF06
:10243000002005490860FFF75FFF681CC5B2082D42
:10244000EADB70BD040C0140A881214200802142DA
:1024500010B50E48006820F470400C49086008462A
:10246000006840F4405008600120094908600949AB
:10247000C1F8A801FFF740FF002005490860FFF7F9
:102480003BFF00200349C1F8A80110BD040C014026
:10249000AC8121420080214210B50E48006820F432
:1024A00070400C4908600846006840F440500860DD
:1024B0000020094908600949C1F8AC01FFF71CFF79
:1024C0000120054908600549C1F8AC01FFF714FF78
:1024D00010BD0000040C0140A8812142008021426F
:1024E00010B500241448006820F4704012490860B8
:1024F0000846006840F40040086001200F49086069
:10250000FFF7FAFE01200E49C1F8A801FFF7F4FE1B
:1025100007E0601CC4B2FA2C03DDFFF7BDFF012009
:1025200010BD0648803800680028F2D10349091F11
:10253000086000BFF4E70000040C0140AC812142B8
:102540000080214238B50121084600F0D3F901216D
:10255000042000F0CFF94FF40040ADF80000102047
:102560008DF8030003208DF8020069462248FEF72B
:10257000BBFF01212148FFF743F8002020490860F4
:10258000FFF7C0FE80216B2000F0DDF8642002F030
:102590006DFA00216B2000F0D6F8032000F091F8CE
:1025A000002000F086F8322000F0B0F8002138203A
:1025B00000F0C9F800216A2000F0C5F800212320AE
:1025C00000F0C1F88021372000F0BDF8752000F040
:1025D00019F80446682C0BD101216B2000F0B3F8E8
:1025E00000216C2000F0AFF8322000F08FF801E0FD
:1025F000012038BD0020FCE7000801400002300047
:10260000BC01214270B50446FFF722FFD020FFF73E
:10261000F1FEFFF765FF2046FFF7ECFEFFF760FFD6
:10262000FFF716FFD120FFF7E5FEFFF759FF002067
:10263000FFF7AAFE0546FFF72FFF284670BD2DE9DC
:10264000F04106460F4614461D46FFF701FF0021E4
:1026500041EA4601C8B2FFF7CDFEFFF741FF20B1C6
:10266000FFF71AFF0120BDE8F0813846FFF7C2FEF0
:10267000FFF736FFFFF7ECFE012101EB4601C8B280
:10268000FFF7B8FEFFF72CFF0DE0012C04D100206E
:10269000FFF77AFE287003E00120FFF775FE28702F
:1026A000601EC4B26D1C002CEFD1FFF7F5FE0020B8
:1026B000D9E710B50446E006010E1C2000F043F8EF
:1026C00010BD10B50446E006010E1B2000F03BF8DB
:1026D00010BD70B504460025BC2C01DB012510E0BF
:1026E000622C01DB02250CE02A2C01DB032508E02B
:1026F000142C01DB042504E00A2C01DB052500E095
:10270000062529461A2000F01EF870BD70B5044653
:10271000B4F57A7F01DD4FF47A74042C00DA0424D6
:102720004FF47A7090FBF4F0401EC5B22946192090
:1027300000F009F80546264604EBD671C1F34F00B8
:10274000FFF7C7FF70BD70B505460C46FFF780FE6A
:10275000D020FFF74FFEFFF7C3FE18B1FFF79CFE36
:10276000012070BD2846FFF745FEFFF7B9FE204661
:10277000FFF740FEFFF7B4FE18B1FFF78DFE012012
:10278000EFE7FFF789FE0020EBE72DE9F041054672
:102790000E4617469846FFF75BFE002141EA4501C9
:1027A000C8B2FFF727FEFFF79BFE20B1FFF774FECC
:1027B0000120BDE8F0813046FFF71CFEFFF790FED8
:1027C00000240CE018F80400FFF714FEFFF788FE61
:1027D00018B1FFF761FE0120EBE7601CC4B2BC42F8
:1027E000F0DBFFF759FE0020E3E700BFFEE7000043
:1027F00008B501214FF4C07000F07CF84FF4704030
:10280000ADF8000010208DF8030003208DF80200C1
:1028100069460B48FEF768FE4FF470410848FEF722
:1028200040FF4FF4A670ADF8000069460548FEF77A
:102830005BFE4FF4A6710348FEF733FF08BD0000AE
:10284000001C0140002001407047000070B50021CD
:1028500000230F22C47804B3154C246804F4E06408
:10286000C4F5E064210AC1F10403CA40447804FAC3
:1028700003F184781440214309010E4C0678A155D8
:10288000047804F01F050124AC4005786D11AD00FB
:1028900005F1E025C5F8004109E0047804F01F05C2
:1028A0000124AC40044D0678761145F8264070BDF1
:1028B0000CED00E000E400E080E100E002490143AB
:1028C000024A1160704700000000FA050CED00E0BC
:1028D0007047000029B1064AD2690243044BDA610D
:1028E00004E0034AD2698243014BDA617047000079
:1028F0000010024029B1064A92690243044B9A61D2
:1029000004E0034A92698243014B9A6170470000D8
:102910000010024030B500210022002400232D4D7C
:102920006D6805F00C0121B1042905D0082923D1D7
:1029300005E0294D056022E0274D05601FE0254D8B
:102940006D6805F47012234D6D6805F4803402251E
:1029500005EB92421CB9214D554305600BE01D4D1E
:102960006D6805F400351DB11C4D5543056002E04E
:10297000194D5543056002E0174D056000BF00BFCB
:10298000144D6D6805F0F0010909154D6B5C056883
:10299000DD4045600F4D6D6805F4E061090A104D9A
:1029A0006B5C4568DD4085600A4D6D6805F46051DB
:1029B000C90A0B4D6B5C4568DD40C560054D6D680F
:1029C00005F44041890B074D6B5CC568B5FBF3F519
:1029D000056130BD0010024000127A0000093D0080
:1029E000F00000200001002000B589B0012108207E
:1029F000FFF780FF01210420FFF76CFF4FF4007008
:102A0000ADF8200028208DF8230003208DF8220047
:102A100008A92248FEF768FD4FF400711F48FEF731
:102A200042FE42F21070ADF814004720ADF81000DD
:102A30000020ADF81600ADF8120004A9184801F006
:102A400037FA0C20ADF804000020ADF80600012094
:102A5000ADF808000020ADF80A000320ADF80C0026
:102A600001A90F4801F024F801210D4800F0FFFFF3
:102A70001E208DF81C0001208DF81D0003208DF80C
:102A80001E0001208DF81F0007A8FFF7DFFE0122BE
:102A90001121034801F062F809B000BD000C0140AB
:102AA0000008004096B00024A146FFF79DFFFE48B5
:102AB000006840F00100FC4908600846006840F0EA
:102AC000020008600846006840F0040008600846FC
:102AD000006840F0080008600846006840F01000F8
:102AE00008600846006840F020000860084600685A
:102AF00040F4006008600846006840F40050086038
:102B000041F61F41C72000F021FE0020E749086080
:102B10000120E749C1F8940117E3E64AE649E7488E
:102B200003F0C4FA002842D1E4480168E44805F003
:102B30009DFC054605F0FEFBE2490860DE480168A1
:102B4000DF4805F093FC054605F0F4FBDE4908601C
:102B5000D8480168DA4805F089FC054605F0EAFB2B
:102B6000DA490860DA48006842F6E06188420CDD24
:102B7000D6480068494288421ADAD448006848F6C4
:102B8000A0410844D149086012E0D1480068D14909
:102B900088420DDACD4800684942884208DDCB48BA
:102BA0000068A0F50C40A038C849086000E0CCE2FD
:102BB000C94ACA49CA48FFF751FBC9480088C949F0
:102BC0000988401A00B2C6490880C4480088C6492E
:102BD0000988401A00B2C1490880BF480088C3492B
:102BE0000988401A00B2BC490880C1480068B5494C
:102BF0000968401ABF490860BF480068B2490968BF
:102C0000401ABE490860B2480068B0490968401AD5
:102C1000BB490860BB48006804F00BFFCDE9120116
:102C2000B948006804F005FFCDE90E01B748006817
:102C300004F0FFFE0546B64AB64B04F011FFCDE99D
:102C40000A01B548006804F0F4FE0546B34AB44BE7
:102C500004F006FFCDE90601A948006804F0E9FE8A
:102C600007468846AF48006804F0E3FE8246AB4A58
:102C7000AD4B04F0F5FE05463A46434604F0F0FE3F
:102C8000CDE902019648B0F9000004F0D2FE0746F3
:102C90004FF06632A54B04F0E3FE82468B4697491F
:102CA0000968A1EB011004F0C4FE054652465B46DC
:102CB00004F088FCCDE90001DDE9022305F0C0F84D
:102CC000CDE90401DDE9062304F07CFCCDE908012F
:102CD000DDE90A2304F076FCCDE90C01DDE90E23E1
:102CE00005F0AEF8CDE91001DDE9122304F06AFC2D
:102CF000CDE9140104F06EFE8D490860814800683A
:102D000004F097FECDE912017F48006804F091FEBF
:102D1000CDE90E017D48006804F08BFE05467C4A33
:102D20007C4B04F09DFECDE90A017B48006804F06D
:102D300080FE0546794A7A4B04F092FECDE9060101
:102D40006F48006804F075FE05460E467548006839
:102D500004F06FFE0746714A734B04F081FE2A4669
:102D60003346CDE9000104F07BFECDE902015C4869
:102D7000B0F9000004F05DFE4FF066326B4BCDE918
:102D8000000104F06DFE05460E465C490968A1EBA2
:102D9000011004F04EFE07462A46334604F012FCAA
:102DA0008246DDE9022304F00DFCCDE90401DDE9F2
:102DB000062304F007FCCDE90801DDE90A2304F04D
:102DC00001FCCDE90C01DDE90E2304F0FBFBCDE9AC
:102DD0001001DDE9122304F0F5FBCDE9140104F044
:102DE000F9FD544908605448006804F022FECDE91A
:102DF00012014548006804F01CFECDE90E014F4861
:102E0000006804F016FE0546414A424B04F028FED5
:102E1000CDE90A014A48006804F00BFE05463F4A26
:102E20003F4B04F01DFECDE906013548006804F073
:102E300000FE05460E463B48006804F0FAFD824657
:102E4000364A394B04F00CFE07462A46334604F056
:102E500007FECDE902012148B0F9000004F0E9FDC8
:102E600005464FF06632314B04F0FAFD82468B4640
:102E700020490968C1EB011004F0DBFD074652460A
:102E80005B4604F0DDFFCDE90001DDE9022304F03B
:102E9000D7FFCDE90401DDE9062304F093FBCDE97A
:102EA0000801DDE90A234DE000040140948121423C
:102EB0000000234208000020040000200000002041
:102EC0000000C842300000203400002038000020FC
:102ED0004400002020D1FFFF100000200E00002041
:102EE0000C0000201200002014000020160000201A
:102EF0003C00002048000020400000204C00002042
:102F00005000002070000020780000206C0000209D
:102F1000FCA9F1D24D62803F640000209A999999F2
:102F20009999E93F540000209999B93F6666064097
:102F30007C00002080000020740000206800002039
:102F40006000002004F03EFBCDE90C01DDE90E231A
:102F500004F076FFCDE91001DDE9122304F032FB25
:102F6000CDE9140104F036FD78490860784800681E
:102F700004F05FFDCDE912017648006804F059FDC8
:102F8000CDE90E017448006804F053FD0546734A0C
:102F9000734B04F065FDCDE90A017248006804F046
:102FA00048FD0546704A714B04F05AFDCDE9060113
:102FB0006F48006804F03DFD074688466D4800688C
:102FC00004F037FD8246684A6B4B04F049FD054624
:102FD0003A46434604F044FDCDE902016748B0F9A2
:102FE000000004F026FD05464FF06632644B04F005
:102FF00037FD82468B4663490968C1EB011004F036
:1030000018FD074652465B4604F01AFFCDE9000161
:10301000DDE9022304F0D6FACDE90401DDE9062357
:1030200004F0D0FACDE90801DDE90A2304F0CAFA78
:10303000CDE90C01DDE90E2304F0C4FACDE910015D
:10304000DDE9122304F0BEFACDE9140104F0C2FC5C
:103050004D4908604D480068FDF7A6FB4C480068E4
:10306000FDF7EAFB39480068FDF72EFC464800688A
:10307000FDF76CFC00F09AF80446ACB3B9F1000F10
:1030800033D14FF00109A82C1AD006DC222C09D02C
:10309000622C10D0902C26D116E0C22C06D0E02C49
:1030A00021D118E03B482A4908601CE04FF4E16058
:1030B0002749086017E04FF4E1603749086012E0E3
:1030C0003448354908600EE000202A49086033483A
:1030D0002049086007E00020264908604FF4FA7094
:1030E0001C49086000BF2FE0FFE76CBBB9F1010F7E
:1030F0002AD14FF0000900202749086014490860D0
:103100002748006844F25061884206DD2448006880
:10311000A0EB41002349086010E0214800682249E3
:10312000884207DA1E48006848F6A04108441D4955
:10313000086003E01A4800681A4908600020054941
:10314000086001200B49086000BFE6E4840000200D
:10315000740000207800002068000020FCA9F1D253
:103160004D62803F600000209A9999999999E93FB2
:1031700050000020540000209999B93F0E00002013
:103180006666064048000020880000207C00002081
:1031900080000020F8F8FFFF700000200CFEFFFF09
:1031A0003800002044000020B0B9FFFF10B5002017
:1031B000154B1B7803F040032BB3144B1B68190EFF
:1031C000124B1B68C3F30742D343DBB28B420BD1D4
:1031D00051B90E4B1B88C3F307210C4B1A78D3430C
:1031E000DBB28B4200D1084620B1074B1B7803F0BD
:1031F000800343B9044B1B7823F04003024C237037
:103200000023034C237010BDDC000020E0000020F0
:10321000E4000020704710B500F002F810BD000077
:103220000CB50020019000903348006840F48030D5
:103230003149086000BF3048006800F40030009059
:103240000198401C0190009818B90198B0F5A06F42
:10325000F1D12948006800F4003010B1012000903D
:1032600001E0002000900098012843D12348006825
:1032700040F01000214908600846006820F0030073
:1032800008600846006840F0020008601A4840687C
:10329000194948600846406848600846406840F45C
:1032A000806048600846406820F47C10486008460A
:1032B000406840F4E81048600846006840F08070BC
:1032C000086000BF0C48006800F000700028F9D0CA
:1032D0000948406820F003000749486008464068F4
:1032E00040F00200486000BF0348406800F00C0056
:1032F0000828F9D10CBD0000001002400020024057
:10330000042808D14FF0E021096941F004014FF091
:10331000E022116107E04FF0E021096921F004018A
:103320004FF0E022116170477047000010B513485C
:10333000006840F0010011490860084640681049E3
:1033400008400E494860084600680E4908400B498D
:1033500008600846006820F480200860084640683D
:1033600020F4FE0048604FF41F008860FFF753FF11
:103370004FF000600449086010BD000000100240DA
:103380000000FFF8FFFFF6FE08ED00E0F0B50C4688
:10339000154600220021068C4FF6FE773E4006843B
:1033A000028B018C4FF60C7632407E1C06EA031627
:1033B0002E433243104EB0420ED0104EB0420BD0CE
:1033C000B0F1804F08D00E4EB04205D00D4EB04245
:1033D00002D00D4EB04206D14FF6FD76314044F09A
:1033E0000106314305E04FF6F576314044F0010621
:1033F000314302830184F0BD002C014000340140C0
:103400000004004000080040000C0040F0B50C46ED
:103410001546002200210026078C4FF6EF7C07EAB4
:103420000C070784028B018C4FF6FF7707EA04161E
:1034300040F6FF473A404FF6FF7707EA03373A4333
:103440004FF6FF7707EA05273A43114FB8420ED0EF
:10345000104FB8420BD0B0F1804F08D00E4FB84299
:1034600005D00E4FB84202D00D4FB84206D14FF6EC
:10347000DF77394046F01007394305E04FF65F77B4
:10348000394044F01007394302830184F0BD000045
:10349000002C0140003401400004004000080040BE
:1034A000000C0040F0B50C46154600220021002615
:1034B000078C4FF6FF6C07EA0C070784828B018CA0
:1034C0004FF6FF7707EA04264FF60C773A404FF69F
:1034D000FF7707EA03172F433A43114FB8420ED044
:1034E000104FB8420BD0B0F1804F08D00E4FB84209
:1034F00005D00E4FB84202D00D4FB84206D14FF65C
:10350000FF57394046F48077394305E04FF2FF57C3
:10351000394044F48077394382830184F0BD000050
:10352000002C01400034014000040040000800402D
:10353000000C0040F0B50C46154600220021002684
:10354000078C4EF6FF7C07EA0C070784828B018C00
:103550004FF6FF7707EA043640F6FF473A404FF64A
:10356000FF7707EA05273A434FF6FF7707EA033765
:103570003A43114FB8420ED0104FB8420BD0B0F1C1
:10358000804F08D00E4FB84205D00E4FB84202D03F
:103590000D4FB84206D14DF6FF77394046F48057BB
:1035A000394305E047F6FF57394044F48057394323
:1035B00082830184F0BD0000002C014000340140F2
:1035C0000004004000080040000C00402DE9F05FBE
:1035D0000121880700F05BFA00287DD001218807CF
:1035E00000F042FA48490968484A1268114401EB60
:1035F0008101480004F01DFA06460F464448006861
:1036000004F017FA8246434A434B04F029FA8046F5
:1036100032463B4603F0D6FF044604F0DBF93C4952
:1036200008603E4909683E4A1268114401EB810175
:10363000480004F0FEF904460D463A48006804F0DC
:10364000F8F90646334A344B04F00AFA804622461B
:103650002B4603F0B7FF824604F0BCF931490860FD
:10366000002029490860294908602C4908602C4934
:103670000860274800682C490968401A2B490860EF
:10368000284800682A490968401A2A4908602A48D7
:103690000068C0B9294800682449096808442749D6
:1036A0000860084600682649884203DD0846234929
:1036B000086008E02148006821494942884202DA4E
:1036C00008461E4908601F48006828B91E4800685F
:1036D00018490968084400E013E01B4908600846DF
:1036E00000681749884203DD08461749086008E06A
:1036F0001548006812494942884202DA08461249D0
:103700000860BDE8F09F0000180000201C000020A9
:103710002C000020CDCCCCCCCCCCEC3F2000002029
:1037200024000020280000205C000020640000200D
:103730005800002060000020700000206C00002075
:1037400090D0030074000020680000207FB505467B
:103750000C4601210846FFF7BDF8ADF80850ADF85A
:1037600004400020ADF80A00ADF8060001A94FF0B2
:10377000804000F09DFB01221146900700F0EEF919
:103780001C208DF8000002208DF8010000208DF82B
:10379000020001208DF803006846FFF757F8012169
:1037A000880700F064F97FBD30B589B005460C4646
:1037B00001210220FFF78EF801210D20FFF79AF872
:1037C000C020ADF8200018208DF8230003208DF8CC
:1037D000220008A93B48FDF787FE0320ADF8200032
:1037E00018208DF8230003208DF8220008A9364800
:1037F000FDF77AFEADF81850ADF814400020ADF892
:103800001A00ADF8160005A9304800F051FB602001
:10381000ADF804000120ADF806000020ADF80C0062
:1038200001A92A4800F0A4F90821284800F0ECF981
:103830006020ADF804000120ADF806000020ADF8CE
:103840000C0001A9214800F0E9F908211F4800F007
:1038500037FA6020ADF804000120ADF80600002022
:10386000ADF80C0001A9194800F038FA08211748F2
:1038700000F084FA6020ADF804000120ADF80600E5
:103880000020ADF80C0001A9104800F081FA0821D1
:103890000E4800F0C8FA01210C4800F0E8F80021B9
:1038A0000A4800F0CDFA0021084800F0CBFA0021C8
:1038B000064800F0C9FA0021044800F0C7FA09B030
:1038C00030BD000000080140000C01400004004031
:1038D00010B501215E4800F0DAF8F8B15D480078D3
:1038E00000F08000D0B15B48007820F0100059490A
:1038F00008700846007800F00F0020B908460078EC
:1039000040F0400008705348007800F00F000E2887
:1039100005DA50480078401C4E4908700AE04D48CE
:10392000007820F080004B4908700846007800F0CD
:10393000F00008701021464800F0A9F8002810D0C7
:103940004548006870B10221414800F05FFA00214B
:103950003F4800F07EFA3F48007840F010003D49B3
:10396000087070E03A4800F08EF83C490880002169
:10397000374800F04BFA3748007800F01000002874
:103980005BD03448007800F08000E8B3334800880A
:10399000B0F5967F0DDD31480088B0F5487F08DA34
:1039A0002F48006840002E490860084600680860FB
:1039B00043E02A480088B0F5AF6F0FDD2748008844
:1039C000B0F5E16F0ADA2648006840002449086033
:1039D0000846006840F0010008602EE01F4800889B
:1039E00040F69801884228DD1C48008840F62821CE
:1039F000884222DA1B480078401C1A490870154892
:103A0000007800F0F00000E002E01249087014E0D5
:103A10001248008841F2680188420EDD0F48008894
:103A200041F25C21884208DA0A48007840F08000C0
:103A30000849087000200B4908700648007820F0FB
:103A40001000044908701121014800F00DF810BD64
:103A500000080040DC00002024812142DE0000201C
:103A6000E0000020E4000020CA430282704721B138
:103A7000028842F00102028004E002884FF6FE73E1
:103A80001A40028070470146B1F84000704730B5D7
:103A90000246002000230024158A05EA01039589C7
:103AA00005EA010413B10CB1012000E0002030BD93
:103AB00070B505460C46244885420ED02348854201
:103AC0000BD0B5F1804F08D02148854205D0214860
:103AD000854202D02048854200D100E000BF208806
:103AE00050B92389A28861882846FFF74FFCE188F6
:103AF000284600F0B0F925E0208804280AD123895F
:103B0000A28861882846FFF781FCE188284600F0FA
:103B1000ABF917E0208808280AD12389A288618898
:103B20002846FFF7BFFCE188284600F0AAF909E023
:103B30002389A28861882846FFF7FCFCE188284693
:103B400000F0A8F970BD0000002C014000340140D5
:103B50000004004000080040000C00401AB18389B6
:103B60000B43838102E083898B438381704700008C
:103B700070B5002400220023058C4FF6FE763540F8
:103B80000584028C8388048B4FF68F752C40B51EFC
:103B90002C400D882C43751E2A400D892A434D88E0
:103BA0002A43144DA8420BD0134DA84208D0134D00
:103BB000A84205D0124DA84202D0124DA84213D1FE
:103BC0004FF6F7752A404D892A434FF6FB752A4078
:103BD0008D882A434FF6FF652B404FF6FF552B404B
:103BE0008D892B43CD892B4383800483CD888586A3
:103BF000028470BD002C01400034014000400140AF
:103C000000440140004801400A460021018B4FF664
:103C1000F7731940114301837047000070B5002409
:103C200000220023058C4FF6EF7635400584028C88
:103C30008388048B48F6FF752C404FF6FF452C40D7
:103C40000D884FF6FF7606EA05252C434FF6DF7503
:103C50002A400D8906EA05152A434D8806EA05150E
:103C60002A43154DA84202D0144DA8421DD14FF64B
:103C70007F752A404D894FF6FF7606EA05152A43DF
:103C80004FF6BF752A408D8806EA05152A434FF680
:103C9000FF352B404FF2FF752B408D8906EA8505D5
:103CA0002B43CD8906EA85052B4383800483CD8889
:103CB0000587028470BD0000002C014000340140E3
:103CC0000A460021018B4FF2FF7319404FF6FF7334
:103CD00003EA0223194301837047000070B50024F2
:103CE00000220023058C4FF6FF6635400584028CC8
:103CF0008388848B4FF68F752C404FF6FC752C40D3
:103D00000D882C434FF6FF552A400D894FF6FF765C
:103D100006EA05252A434D8806EA05252A43154D5E
:103D2000A84202D0144DA8421DD14FF2FF752A407F
:103D30004D894FF6FF7606EA05252A434FF6FF35F3
:103D40002A408D8806EA05252A434EF6FF752B404A
:103D50004DF6FF752B408D8906EA05152B43CD895D
:103D600006EA05152B4383808483CD8885870284EA
:103D700070BD0000002C0140003401400A460021C3
:103D8000818B4FF6F7731940114381837047000010
:103D900070B5002200230024058C4EF6FF763540D6
:103DA0000584038C8488828B48F6FF752A404FF681
:103DB000FF452A400D884FF6FF7606EA05252A437F
:103DC0004DF6FF752B400D8906EA05352B434D88CE
:103DD00006EA05352B430B4DA84202D00A4DA842F6
:103DE00008D14BF6FF752C408D894FF6FF7606EA19
:103DF00085152C4384808283CD88A0F840500384AD
:103E000070BD0000002C0140003401400A46002132
:103E1000018C4DF6FF7319404FF6FF7303EA02332E
:103E20001943018470470A460021818B4FF2FF73CA
:103E300019404FF6FF7303EA022319438183704749
:103E4000818670470187704781877047A0F84010CE
:103E5000704781847047028B4FF6F3731A400283D8
:103E6000028B0A4302837047028B4FF2FF331A40E2
:103E70000283028B4FF6FF7303EA01231A43028386
:103E80007047828B4FF6F3731A408283828B0A430A
:103E900082837047828B4FF2FF331A408283828B7A
:103EA0004FF6FF7303EA01231A4382837047000031
:103EB000002202881D4B98420ED01D4B98420BD019
:103EC000B0F1804F08D01B4B984205D01A4B984256
:103ED00002D01A4B984204D14FF68F731A404B8888
:103EE0001A43174B984207D0164B984204D04FF60E
:103EF000FF431A40CB881A4302808B8883850B8846
:103F000003850A4B98420BD0094B984208D00E4BC0
:103F1000984205D00D4B984202D00D4B984201D1EA
:103F20000B7A03860123838270470000002C014036
:103F3000003401400004004000080040000C004034
:103F400000100040001400400040014000440140C7
:103F50000048014010B540F22551384800F08CF877
:103F6000002869D0354800F043F9C4B2FF2C24D1B1
:103F70003348006844F25061884206DD30480068EA
:103F8000A0EB41002F49086010E02D4800682E4941
:103F9000884207DA2A48006848F6A04108442949BF
:103FA000086003E026480068264908600020274989
:103FB00008600120264908603EE0C02C07D100209F
:103FC000234908604FF4FA702049086034E0402C1F
:103FD00006D100201E4908601E481C4908602BE0DD
:103FE00004F08000802812D104F0400038B904F0B9
:103FF0003F00C0EB00104000174908601CE004F0CF
:104000003F00A0EB001040001349086014E004F0EA
:10401000800088B904F0400038B904F03F00C0EBDC
:10402000001040000D49086006E004F03F00A0EBDE
:10403000001040000949086010BD00000044004025
:104040003800002044000020B0B9FFFF78000020B5
:10405000540000200CFEFFFF7000002074000020C0
:1040600021B1828942F40052828104E082894DF6B6
:10407000FF731A408281704770B502460024002306
:104080000025002040F66A16B14200D100BFC1F3FE
:10409000421501F01F03012606FA03F3012D02D198
:1040A0009689334006E0022D02D1168A334001E0A2
:1040B000968A33400C12012606FA04F4168834401E
:1040C00013B10CB1012000E0002070BDF0B5034633
:1040D000002400260025002040F66A17B94200D1CE
:1040E00000BF1846C1F3421401F01F06012707FA6A
:1040F00006F5012C01D10C3004E0022C01D1103066
:1041000000E014301AB107682F43076002E0076827
:10411000AF430760F0BD00002DE9F04786B00546CB
:104120000E460024A24600BFA1460027B08900B178
:1041300000BF2F462C8A4CF6FF700440F0880443E1
:104140002C82AC894EF6F3100440B08831890843C4
:10415000718908430443AC81AC8A4FF6FF400440A8
:10416000B0890443AC8201A8FEF7D4FB1F48874204
:1041700002D1DDF810A001E0DDF80CA0A88900F460
:10418000004040B10AEBCA0000EB0A103168490058
:10419000B0FBF1F807E00AEBCA0000EB0A10316847
:1041A0008900B0FBF1F86420B8FBF0F004012009AD
:1041B000642101FB1089A88900F4004040B132203D
:1041C00000EBC900B0FBF1F000F00700044308E089
:1041D000322000EB09106421B0FBF1F000F00F0079
:1041E00004432C8106B0BDE8F08700000038014090
:1041F00001468888C0F30800704700BFFEE7490009
:1042000050EAC12018BF04204A0D18BF40F0010039
:1042100040F2FF72B2EB515F08BF40F0020001288C
:1042200008BF052070472DE9F0414F1E00EBC70184
:104230000446D1E9000115461E4637F006020DD0AE
:104240002A46334603F00CFC7F1E04EBC703D3E978
:10425000002303F0B7F937F00602F1D1022F25D081
:10426000042F13D0062F18BFBDE8F0812A4633462D
:1042700003F0F6FBD4E90A2303F0A4F92A463346F7
:1042800003F0EEFBD4E9082303F09CF92A463346F9
:1042900003F0E6FBD4E9062303F094F92A463346FB
:1042A00003F0DEFBD4E9042303F08CF92A463346FD
:1042B00003F0D6FBD4E9022303F084F92A463346FF
:1042C00003F0CEFBD4E90023BDE8F04103F07AB956
:1042D000012204F070BA03F075B9002213461046AB
:1042E000114603F01FBA0000024A0020110704F033
:1042F00062BA000001FDFFFF30380A2801D2012018
:10430000704700207047014600BF70472DE9FE4FFF
:1043100006460F460025684601F0DCFA002442E01C
:1043200056F8240057F82410A0EB010ABAF1000F48
:1043300001DB514601E0CAF10001084604F036F8FD
:1043400083464FF08F4103F0FFFE80465DF8240066
:10435000002103F0BBFF16D05DF82410404603F0A7
:10436000F3FE82464FF07E5104F07EF9814629F03B
:10437000004A0F48416A504604F044F912D2012025
:10438000A04005430EE00A48C169404604F03AF8EF
:1043900005D30748016A404604F034F902D20120EF
:1043A000A0400543641C032CBADB2846BDE8FE8F01
:1043B0006C8800082DE9F04D8D4F21F0004A86B041
:1043C00005460C46BA452ADBAAEB070028430AD06B
:1043D0008848824501DC1AD1CDB106B02846BDE837
:1043E000F04DFFF775BF844A844B284603F038FB35
:1043F00007460E46824A834B2846214603F030FB8F
:1044000006B03A463346BDE8F04D03F0DBB8012074
:10441000FCF7BEF806B0BDE8F04DFFF75EBF7A4886
:10442000824542DABAF1795F0BDA2846FFF7E7FEF8
:10443000042808BFFFF758FF284606B02146BDE80C
:10444000F08D2A460B46104603F00AFB83460246CF
:104450006E480E460B4606217844FFF7E4FE5A46A6
:10446000334603F0FDFA804669488A465A46334689
:1044700004217844FFF7D7FE5A46334603F0F0FA9A
:1044800000223B4603F09EF802460B46404651464A
:1044900003F048F92A46234603F0E2FA06B02A461A
:1044A0002346BDE8F04D03F08DB8284624F00041C6
:1044B00000223D463B4603F0D1FB4FF0FF3204F0B3
:1044C0007AF90646024653480F460B4606217844C1
:1044D000FFF7A9FE32463B4603F0C2FACDE90001E0
:1044E0004D4832463B4604217844FFF79CFE324655
:1044F0003B4603F0B5FA00222B4603F063F88346EF
:1045000002913046394602F0BFFF804643480D46CF
:10451000504517DCDDE900015A46029B03F002F921
:1045200042462B4603F09CFA42462B4603F04AF8DB
:10453000012204F040F9304A304B03F081FC304A4C
:10454000304B4CE04FF0000A52460B46404603F019
:1045500039F8CDE9031052462B461046194603F0B0
:104560007FFA32463B4603F079FBDDE9033203F084
:10457000D9F806460F46DDE900015A46029B03F0D2
:10458000D1F88346009101223046394604F013F9F0
:10459000194A1A4B03F062FB06460F4601224046B9
:1045A000294604F008F95A46009B03F059FA3246AE
:1045B0003B4603F045FC06460F460122504629467D
:1045C00004F0F9F80E4DDFF858802A46434603F010
:1045D00045FB32463B4603F041FB2A46434603F087
:1045E0003DFB002CD8BF81F0004106B0BDE8F08D46
:1045F0000000F03F0000F07F075C143326A6913CDA
:10460000182D4454FB21F93F0000E03F2C510000DD
:1046100042510000B6500000CC5000003333EF3F51
:10462000FB21E93F2DE9F84F04460D4621F00040FB
:1046300000917349814211DC7249884201DC06D144
:104640002CB120462946BDE8F84FFFF741BE6E4821
:10465000002DCCBF6D496E49BDE8F88F6D49814290
:1046600011DD6D498142D8BF4FF0FF366DDD204628
:104670002946FFF7C4FD042808BFFFF735FE204692
:104680002946BDE8F88F6549654F25F00045814210
:1046900033DD6449814219DD002632464FF0804304
:1046A0002046294602F08EFF80468A460122204697
:1046B000294604F080F800223B4603F0C1FB424645
:1046C000534603F02FF804460D463EE00126002233
:1046D000BA463B462046294602F074FF80460F4604
:1046E000002253462046294603F0AAFB42463B4699
:1046F00003F018F804460D4627E04B4981421BDDC4
:10470000DFF828A10226002253462046294603F05E
:10471000A7F900223B4602F055FF80460F460022D3
:1047200053462046294603F08BFB42463B4602F0A7
:10473000F9FF04460D4608E0032622462B460020DA
:104740003B4902F0EFFF04460D4622462B46104639
:10475000194603F085F98B46824602460B4603F064
:104760007FF907460246334888460B4606217844BF
:10477000FFF759FD52465B4603F072F982462E4818
:104780008B463A46434605217844FFF74CFD3A46AE
:10479000434603F065F902460B46002E5046594643
:1047A0000CDA02F00FFF22462B4603F059F901B054
:1047B00022462B46BDE8F04F03F050BA02F002FF4C
:1047C00022462B4603F04CF91C4A7A4402EBC603FE
:1047D000D3E9002303F034FB22462B4603F030FBE1
:1047E000174A7A4402EBC603D3E9002303F036FAF2
:1047F000009A002AB8BF81F00041BDE8F88F0000A0
:10480000000010440000F07F182D4454FB21F93FB4
:10481000FB21F9BF0000DC3F0000203E0000F33F19
:104820000000F03F0000E63F008003400000F83F3A
:104830000000F0BFCE4E00008C4E00002A4E00005B
:10484000F24D00002DE9F04D9446CCF1000423F028
:1048500000464CEA0404524F46EAD4749A4688460D
:1048600021F00042BC4206D8454240EA050442EA33
:10487000D474BC4204D9BDE8F04D6246FFF72BBDAD
:10488000AAF14055A5F17F6555EA0C040BD002242E
:1048900004EAAA74434DDFF810E144EAD87452EAFE
:1048A000000B04D00CE0BDE8F04DFFF7BBBE002CC0
:1048B00014BF012CBDE8F08D022C30D0032C32D077
:1048C00056EA0C0B0AD0BE4220D1BA4209D126F0DA
:1048D000804622F080423346114617E000291ADB59
:1048E00025E0DFF8C8B0FB44002C04BFDBE9000181
:1048F000BDE8F08D012C02BFDBE9000181F0004131
:10490000BDE8F08D022C0AD0032C0CD0BA4212D193
:10491000B8F1000F0BDA23482549BDE8F08D284691
:104920002449BDE8F08D28467146BDE8F08D1D484C
:104930002149BDE8F08D921B12153C2AC4BF1948CD
:104940001D490EDCBAF1000FBEBF12F13C0F002072
:10495000014606DB624602F0E5FE21F00041FFF76A
:1049600061FE002C08BFBDE8F08D012C04BF81F072
:104970000041BDE8F08D114A114B022C07D003F025
:104980005FFA2A46BDE8F04D0A4B03F059BA03F02E
:1049900057FA2A46BDE8F04D064B03F05FB9000018
:1049A0000000F07F182D4454FB2109C0864D000003
:1049B000FB21F9BFFB210940FB21F93F075C1433C0
:1049C00026A6A13C2DE9F0410446E07800F0C0069F
:1049D000E07800F03F05607800F0010098B1EF103A
:1049E0002846E91705EB5171C910A5EBC101491C17
:1049F00001F0FF080B48006820B10A4841460268F0
:104A00003846904700BF607800F0080030B1054894
:104A1000406818B1B011034A516888470020BDE8CA
:104A2000F08100000401002010B56FF00400FEF7D3
:104A300067FC0A4800680A49B0FBF1F009490870B0
:104A40000846007800EB4001C1EBC0104FF6FF7143
:104A500001EAC0000449088010BD00008C0000205D
:104A600000127A00E6000020E80000200146114A0A
:104A700012884A434FF0E0235A6100229A611A4695
:104A8000126942F001021A6100BF4FF0E022106982
:104A900000F001021AB100F48032002AF5D04FF084
:104AA000E022126922F001024FF0E0231A61002295
:104AB0009A617047E80000200146114A12784A4383
:104AC0004FF0E0235A6100229A611A46126942F0BF
:104AD00001021A6100BF4FF0E022106900F00102EC
:104AE0001AB100F48032002AF5D04FF0E0221269AA
:104AF00022F001024FF0E0231A6100229A61704710
:104B0000E600002038B5044664B120208DF800008E
:104B100028208DF8010030208DF8020038208DF813
:104B2000030004E0A32204216846FBF7A9FC6A46BF
:104B3000042140F69E2002F06DFB01F057FF38BDC6
:104B40003EB5044602208DF80000CA208DF8010011
:104B5000E3208DF8020009208DF803006A46042145
:104B6000682002F057FBA3208DF8000004F04000FD
:104B700048B1C0208DF80100C8208DF80200C22085
:104B80008DF8030006E0A3208DF801008DF80200E7
:104B90008DF8030004F4C07048B1C4208DF80400FF
:104BA000CC208DF80500C6208DF8060006E0A32075
:104BB0008DF804008DF805008DF80600A3208DF80F
:104BC00007008DF808008DF809006A460A2140F6B2
:104BD000A72002F01FFB04F0030018B120208DF87D
:104BE000000002E0D8208DF800006A46012140F65E
:104BF000B62002F00FFB04F0200018B1012000F0F5
:104C0000ADF802E0002000F0A9F804F4C07008B389
:104C100004F4807060B1B2208DF800008B208DF814
:104C20000100B6208DF802009B208DF803000BE0F8
:104C3000B0208DF8000080208DF80100B4208DF8A0
:104C4000020090208DF803006A46042140F6A2205D
:104C500002F0E0FA04F0010020B3F8208DF8000023
:104C60006A4601214FF40B6002F0D4FAFA210720C2
:104C700000F02CFC072000F0F3FB012000F013FCF7
:104C8000642000F0F3FC4FF4FA7000F002FDC8213C
:104C9000304800F0A3FB282000F0BCFB0A2000F005
:104CA000CCFB08E0D8208DF800006A4601214FF4C3
:104CB0000B6002F0AFFA04F0020018B1D9208DF8B1
:104CC000000002E0D8208DF800006A46012140F281
:104CD0003D7002F09FFA04F0040018B1012000F0CA
:104CE00069F802E0002000F065F804F0100018B147
:104CF0000120FFF707FF02E00020FFF703FF44F069
:104D000008001549488101F071FE0020124988739E
:104D100004F0400018B10846807B801D887304F4BD
:104D2000C07020B10C48807B801D0B49887304F053
:104D3000140020B10848807B10300749887304F0C4
:104D4000030020B10448807B001D034988730020C4
:104D50003EBD000009E3CA02040100203EB504463E
:104D60006CB10EA1D1E900208968CDE90020029143
:104D70006A4609214FF4976002F04CFA3EBD0AA240
:104D8000D2E900109268CDE9010200916A4609213A
:104D90004FF4976002F03EFAF0E70000B8AAB38D36
:104DA000B4980D355D000000B8AAAAAAB088C3C5A2
:104DB000C700000038B5044664B1C0208DF800007B
:104DC000C2208DF80100C4208DF80200C6208DF8A5
:104DD000030004E08B2204216846FBF751FB6A467E
:104DE000042140F6982002F015FA01F0FFFD38BDCD
:104DF00010B5C8234FF48062024940F6F63001F046
:104E000089FC10BD948800082DE9F04F8DB007464D
:104E1000884615469946DDE9166B0024002030804F
:104E20006B49887B5A4605A901F040FD18B1601E08
:104E30000DB0BDE8F08F6648807A00F014000028BD
:104E400067D09DF8140000069DF8151040EA014057
:104E50009DF8161040EA01209DF8171008432860BD
:104E60009DF8180000069DF8191040EA01409DF8D1
:104E70001A1040EA01209DF81B10084368609DF855
:104E80001C0000069DF81D1040EA01409DF81E1010
:104E900040EA01209DF81F100843A8609DF82000FB
:104EA00000069DF8211040EA01409DF8221040EADA
:104EB00001209DF823100843E86004F11000C4B2FB
:104EC000286800140190686800140290A868001413
:104ED0000390E8680014049001984043029901FB94
:104EE0000100039901FB0100049901FB010ABAF1D9
:104EF000706F02DBBAF1885F05DD01F077FD0020FD
:104F00003080401E94E7B6F9000040F48070308095
:104F100000BF2F48807A00F0400020B305A9601C34
:104F2000085C095D40EA012000B2A8F8000005A96C
:104F3000E01C095C05AAA01C105C41EA002000B23C
:104F4000A8F8020005A9601D095C201D105C41EA5B
:104F5000002000B2A8F80400A01DC4B2B6F90000F9
:104F600040F0080030801A48408900F4C07008B34F
:104F700005A9601C085C095D40EA012000B2388088
:104F800005A9E01C095C05AAA01C105C41EA0020F0
:104F900000B2788005A9601D095C201D105C41EA03
:104FA000002000B2B880A01DC4B2B6F9000040F0E5
:104FB000700030800648807A00F0030018B105A91F
:104FC0000819FFF7FFFC484601F036F800202FE7EC
:104FD0000401002070B588B0064601A801F0EEF982
:104FE000BDF804000021C90341EA5045C403444808
:104FF000007A00F0030056F8200005904048007A3F
:1050000000F0040010B10598404205903C48007A39
:10501000C0F3C10056F8200006903948007A00F02D
:10502000200010B10698404206903548007AC0F33F
:10503000811056F8200007903148008900F48070F4
:1050400010B10798404207900598C117A0FB0423B0
:1050500001FB043100FB0510810041EA92700590CC
:105060000698C117A0FB042301FB043100FB0510C7
:10507000810041EA927006900798C117A0FB0423B3
:1050800001FB043100FB0510810041EA927007909A
:105090000598000E8DF808000598000C8DF80900A1
:1050A0000598000A8DF80A000598C0B28DF80B002B
:1050B0000698000E8DF80C000698000C8DF80D0077
:1050C0000698000A8DF80E000698C0B28DF80F0001
:1050D0000798000E8DF810000798000C8DF811004D
:1050E0000798000A8DF812000798C0B28DF81300D7
:1050F00002AA0C214FF4257002F08CF808B070BDA4
:105100000401002030B585B0044616A207CA02ABE0
:1051100007C3C82C03DD4FF0FF3005B030BDC820F9
:1051200090FBF4F0401E85B2280A8DF80000E8B22A
:105130008DF801006A46022140F2162002F06AF85A
:1051400010B14FF0FF30E8E702AA0C2140F6C12071
:1051500002F060F810B14FF0FF30DEE704488481C0
:105160000020DAE7FEF2ABC4AAF1DFDFBBAFDFDF7E
:10517000040100201FB504464848007A00F00300EF
:1051800054F8200001904548007A00F0040010B166
:105190000198404201904148007AC0F3C10054F8A0
:1051A000200002903D48007A00F0200010B10298E3
:1051B000404202903948007AC0F3811054F8200030
:1051C00003903648008900F4807010B10398404283
:1051D00003903349019880FB0101800F40EA810070
:1051E00001902F49029880FB0110820042EA9170E1
:1051F00002902B49039880FB0110820042EA9170D3
:1052000003900198000E8DF800000198000C8DF8B5
:1052100001000198000A8DF802000198C0B28DF8D3
:1052200003006A4604214FF4747001F0F3FF18B1D3
:105230004FF0FF3004B010BD0298000E8DF8000052
:105240000298000C8DF801000298000A8DF8020007
:105250000298C0B28DF803006A4604214FF47570BD
:1052600001F0D8FF10B14FF0FF30E3E70398000ED4
:105270008DF800000398000C8DF801000398000AD7
:105280008DF802000398C0B28DF803006A4604212D
:105290004FF4767001F0BEFFCCE70000040100205F
:1052A00009E3CA0210B586B0044647A0006803901F
:1052B00046A00068029046A00068019045A00068E2
:1052C000009004F0030003A9085C8DF8140003A803
:1052D000C4F3C101405C8DF8150003A8C4F381112B
:1052E000405C8DF8160004F0030002A9085C8DF8FC
:1052F000100002A8C4F3C101405C8DF8110002A89F
:10530000C4F38111405C8DF8120005AA032140F21C
:10531000264001F07FFF18B14FF0FF3006B010BDFE
:1053200004AA032140F22A4001F074FF10B14FF0AB
:10533000FF30F3E7019805900098049004F0040012
:1053400058B19DF8140040F001008DF814009DF84C
:10535000100040F001008DF8100004F0200058B15A
:105360009DF8150040F001008DF815009DF8110022
:1053700040F001008DF8110004F4807058B19DF8E0
:10538000160040F001008DF816009DF8120040F064
:1053900001008DF8120005AA03214FF4886001F086
:1053A00039FF10B14FF0FF30B8E704AA032140F2F3
:1053B000314001F02FFF10B14FF0FF30AEE706484B
:1053C00004810020AAE700004CCD6C000CC92C0021
:1053D000365676002646660004010020F8B50546DC
:1053E0000E464FF47A7095FBF0F000FB06F4200EA9
:1053F0008DF80000200C8DF80100200A8DF80200C5
:10540000E0B28DF803006A4604214FF4AE7001F05B
:1054100001FFF8BD38B50446052094FBF0F084B2D6
:1054200020128DF80000E0B28DF801006A460221DA
:105430004FF4AD7001F0EEFE38BD38B504460520DE
:1054400094FBF0F084B220128DF80000E0B28DF8E9
:1054500001006A4602214FF4AC7001F0DBFE38BD5A
:1054600038B504460020009004F0010020B19DF8FA
:10547000000040F03000009004F0020020B19DF8E0
:10548000000040F00C00009004F0040020B19DF8F2
:10549000000040F0030000906A4601214FF4A47020
:1054A00001F0B8FE38BD38B50446012C01DA0124FC
:1054B00002E0042C00DD0424601EC0B200906A46A5
:1054C000012140F24F1001F0A5FE38BD2DE9FC4747
:1054D00006460F4606F0070010B1B7F5C86F03DDAA
:1054E0004FF0FF30BDE8FC87384602F077FF814679
:1054F000594902F029FE8046684600F039FF9DF8C0
:105500000000022806D0042816D0082826D010282B
:1055100048D135E04FF08D41404602F0A7FF81466B
:1055200002F024FF84B24D49404602F09FFF8146BD
:1055300002F01CFF85B238E04FF08C41404602F08B
:1055400095FF814602F012FF84B24549404602F0C1
:105550008DFF814602F00AFF85B226E04FF08B41B5
:10556000404602F083FF814602F000FF84B23D49CD
:10557000404602F07BFF814602F0F8FE85B214E05F
:105580004FF08A41404602F071FF814602F0EEFE84
:1055900084B23549404602F069FF814602F0E6FEDA
:1055A00085B202E04FF0FF309CE700BF20128DF87B
:1055B0000400E0B28DF8050028128DF80600E8B26C
:1055C0008DF8070006F00100A0B101AA02214FF4F6
:1055D000EA7001F01FFE10B14FF0FF3082E70DF1CD
:1055E000060202214FF4927001F014FE10B14FF048
:1055F000FF3077E706F00200A0B101AA02214FF4C4
:10560000EC7001F007FE10B14FF0FF306AE70DF1CA
:10561000060202214FF4947001F0FCFD10B14FF02E
:10562000FF305FE706F00400A0B101AA02214FF4A9
:10563000EE7001F0EFFD10B14FF0FF3052E70DF1C9
:10564000060202214FF4967001F0E4FD10B14FF014
:10565000FF3047E7002045E7000048430000404690
:105660000000C045000040450000C04438B5044675
:10567000052094FBF0F085B228128DF80000E8B206
:105680008DF801006A4602214FF4EF7001F0C2FD6F
:1056900038BD38B50446052094FBF0F085B22812D9
:1056A0008DF80000E8B28DF801006A4602214FF43F
:1056B000ED7001F0AFFD38BD00BF054A128802F061
:1056C0004002002AF9D0C2B2014B1B1D1A8070475C
:1056D0000044004038B5002000906A460221432073
:1056E000FCF748F90546002D79D19DF800009DF89A
:1056F000011040EA0124002C71D0102C45D008DCA8
:10570000012C10D0022C1BD0042C25D0082C16D133
:105710002FE0202C64D0402C74D0802C73D0B4F5B2
:10572000807FF4D197E062480068002803DA002007
:105730005F49086003E04FF4E1605D490860B4E050
:105740005B480068002803DD00205949086002E03A
:10575000584857490860A8E057480068002803DA0D
:1057600000205549086003E04FF4E16052490860A9
:105770009BE051480068002803DD00204E49086086
:1057800002E04C484C4908608FE000204A4908601C
:10579000474908604948006844F25061884206DD84
:1057A00046480068A0EB41004549086010E04348C6
:1057B00000684449884207DA4048006848F6A0413A
:1057C00008443F49086003E03C4800683C490860E1
:1057D00000203D49086001203C49086065E065E023
:1057E000002035490860324908603448006844F2B6
:1057F0005061884208DD31480068A0EB4100304923
:10580000086012E018E01EE02C4800682D4988422C
:1058100007DA2A48006848F6A04108442849086089
:1058200003E02648006826490860002026490860F1
:1058300001202649086038E00020244908602448F7
:105840002149086031E00020204908604FF4FA70D7
:105850001D49086029E000201749086014490860C4
:105860001648006844F25061884206DD134800681B
:10587000A0EB41001249086010E01048006811498F
:10588000884207DA0D48006848F6A04108440C49F0
:10589000086003E0094800680949086000200A49D7
:1058A000086001200949086000BF00BF38BD000042
:1058B00074000020F8F8FFFF70000020380000207E
:1058C00044000020B0B9FFFF780000205400002001
:1058D0000CFEFFFF7CB5054628494968087801ABF6
:1058E00004220D21FCF7ABFE08B107207CBD9DF81A
:1058F0000700C0F301109DF8041001F0E00140EA38
:10590000E1008DF800009DF80700C0F381009DF8CC
:10591000051001F0E00140EAE1008DF801009DF87A
:10592000070000F003009DF8061001F0E00140EAD6
:10593000E1008DF8020000241CE01DF8040018B9F5
:10594000002045F8240013E00D4845F8240006E047
:1059500055F824000B4902F089FD45F824001DF894
:105960000400401EC0B20DF804000028F0D100BFB2
:10597000601CC4B2032CE0DB0020B7E7A4000020C9
:105980007B14AE3E1D5A843F2DE9F04F87B005468B
:105990000C46914601208DF8100000208DF8110072
:1059A000FE4A1268917CFD4A5268107804AB0222CC
:1059B000FCF7EBFE20B14FF0FF3007B0BDE8F08FF1
:1059C000C820FFF753F800208DF81000F34A126842
:1059D000D17BF24A5268107804AB0122FCF7D5FE65
:1059E00010B14FF0FF30E8E7EC4A12685179EB4A0A
:1059F0005268107804AB0122FCF7C7FE10B14FF0DB
:105A0000FF30DAE7E54A1268917CE44A5268107880
:105A100004AB0122FCF7B9FE10B14FF0FF30CCE728
:105A2000DE4A1268D17DDD4A5268107804AB01224B
:105A3000FCF7ABFE10B14FF0FF30BEE7D74A12685B
:105A40001179D64A5268107804AB0122FCF79DFE0A
:105A500010B14FF0FF30B0E70C208DF81000CF4AA6
:105A600012681179CD4A5268107804AB0122FCF714
:105A70008CFE10B14FF0FF309FE70F20FEF7F6FFCE
:105A8000C648806A407A8DF81000C44A126891783E
:105A9000C24A5268107804AB0122FCF776FE10B1BE
:105AA0004FF0FF3089E7BD48806A007A8DF810001A
:105AB000BA4A12685178B94A5268107804AB012288
:105AC000FCF763FE10B14FF0FF3076E7B9F1000F3D
:105AD00007D0B248806A807A40F0E0008DF810006C
